{
  "contractName": "DEX",
  "abi": [
    {
      "inputs": [],
      "stateMutability": "nonpayable",
      "type": "constructor"
    },
    {
      "inputs": [],
      "name": "dexTokenExchangeRate",
      "outputs": [
        {
          "internalType": "uint256",
          "name": "",
          "type": "uint256"
        }
      ],
      "stateMutability": "view",
      "type": "function",
      "constant": true
    },
    {
      "inputs": [],
      "name": "exchangeFee",
      "outputs": [
        {
          "internalType": "uint256",
          "name": "",
          "type": "uint256"
        }
      ],
      "stateMutability": "view",
      "type": "function",
      "constant": true
    },
    {
      "inputs": [],
      "name": "owner",
      "outputs": [
        {
          "internalType": "address",
          "name": "",
          "type": "address"
        }
      ],
      "stateMutability": "view",
      "type": "function",
      "constant": true
    },
    {
      "inputs": [
        {
          "internalType": "uint256",
          "name": "_newRate",
          "type": "uint256"
        }
      ],
      "name": "updateDexTokenExchangeRate",
      "outputs": [],
      "stateMutability": "nonpayable",
      "type": "function"
    },
    {
      "inputs": [
        {
          "internalType": "uint256",
          "name": "_newFee",
          "type": "uint256"
        }
      ],
      "name": "updateExchangeFee",
      "outputs": [],
      "stateMutability": "nonpayable",
      "type": "function"
    },
    {
      "inputs": [],
      "name": "withdrawFees",
      "outputs": [],
      "stateMutability": "nonpayable",
      "type": "function"
    },
    {
      "inputs": [
        {
          "internalType": "address",
          "name": "_dexTokenContractAddress",
          "type": "address"
        }
      ],
      "name": "swapETHWithDEXToken",
      "outputs": [],
      "stateMutability": "payable",
      "type": "function",
      "payable": true
    },
    {
      "inputs": [
        {
          "internalType": "address",
          "name": "_dexTokenContractAddress",
          "type": "address"
        },
        {
          "internalType": "uint256",
          "name": "_tokenAmount",
          "type": "uint256"
        }
      ],
      "name": "swapDEXTokenWithETH",
      "outputs": [],
      "stateMutability": "payable",
      "type": "function",
      "payable": true
    }
  ],
  "bytecode": "0x60a060405261271060015565b5e620f4800060025534801561002057600080fd5b5060016000819055503373ffffffffffffffffffffffffffffffffffffffff1660808173ffffffffffffffffffffffffffffffffffffffff168152505060805161114c6100946000396000818161020b01528181610563015281816105f1015281816109040152610928015261114c6000f3fe608060405260043610610098576000357c010000000000000000000000000000000000000000000000000000000090048063476343ee1161006b578063476343ee146101385780638abbd3a91461014f5780638da5cb5b1461016b5780639b9cf7de1461019657610098565b80632ecd3be41461009d578063350d91fd146100c8578063367fd448146100f15780633e6f03f81461011c575b600080fd5b3480156100a957600080fd5b506100b26101bf565b6040516100bf91906109d7565b60405180910390f35b3480156100d457600080fd5b506100ef60048036038101906100ea9190610a23565b6101c5565b005b3480156100fd57600080fd5b506101066102a2565b60405161011391906109d7565b60405180910390f35b61013660048036038101906101319190610aae565b6102a8565b005b34801561014457600080fd5b5061014d61051b565b005b61016960048036038101906101649190610adb565b610663565b005b34801561017757600080fd5b50610180610902565b60405161018d9190610b2a565b60405180910390f35b3480156101a257600080fd5b506101bd60048036038101906101b89190610a23565b610926565b005b60025481565b8060008111610209576040517f08c379a000000000000000000000000000000000000000000000000000000000815260040161020090610bc8565b60405180910390fd5b7f000000000000000000000000000000000000000000000000000000000000000073ffffffffffffffffffffffffffffffffffffffff163373ffffffffffffffffffffffffffffffffffffffff1614610297576040517f08c379a000000000000000000000000000000000000000000000000000000000815260040161028e90610c5a565b60405180910390fd5b816001819055505050565b60015481565b8060008173ffffffffffffffffffffffffffffffffffffffff166370a08231306040518263ffffffff167c01000000000000000000000000000000000000000000000000000000000281526004016103009190610b2a565b602060405180830381865afa15801561031d573d6000803e3d6000fd5b505050506040513d601f19601f820116820180604052508101906103419190610c8f565b90506000600154600254346103569190610ceb565b6103609190610d1f565b9050808210156103a5576040517f08c379a000000000000000000000000000000000000000000000000000000000815260040161039c90610deb565b60405180910390fd5b6002543410156103ea576040517f08c379a00000000000000000000000000000000000000000000000000000000081526004016103e190610e7d565b60405180910390fd5b60026000540361042f576040517f08c379a000000000000000000000000000000000000000000000000000000000815260040161042690610ee9565b60405180910390fd5b600260008190555060006001546002543461044a9190610ceb565b6104549190610d1f565b90506002546003600082825461046a9190610f09565b925050819055508473ffffffffffffffffffffffffffffffffffffffff1663a9059cbb33836040518363ffffffff167c01000000000000000000000000000000000000000000000000000000000281526004016104c8929190610f5f565b6020604051808303816000875af11580156104e7573d6000803e3d6000fd5b505050506040513d601f19601f8201168201806040525081019061050b9190610fc0565b5050600160008190555050505050565b60035460008111610561576040517f08c379a000000000000000000000000000000000000000000000000000000000815260040161055890610bc8565b60405180910390fd5b7f000000000000000000000000000000000000000000000000000000000000000073ffffffffffffffffffffffffffffffffffffffff163373ffffffffffffffffffffffffffffffffffffffff16146105ef576040517f08c379a00000000000000000000000000000000000000000000000000000000081526004016105e690610c5a565b60405180910390fd5b7f000000000000000000000000000000000000000000000000000000000000000073ffffffffffffffffffffffffffffffffffffffff166108fc6003549081150290604051600060405180830381858888f19350505050158015610657573d6000803e3d6000fd5b50600060038190555050565b818160008273ffffffffffffffffffffffffffffffffffffffff166370a08231336040518263ffffffff167c01000000000000000000000000000000000000000000000000000000000281526004016106bc9190610b2a565b602060405180830381865afa1580156106d9573d6000803e3d6000fd5b505050506040513d601f19601f820116820180604052508101906106fd9190610c8f565b905080821015610742576040517f08c379a00000000000000000000000000000000000000000000000000000000081526004016107399061105f565b60405180910390fd5b600254341015610787576040517f08c379a000000000000000000000000000000000000000000000000000000000815260040161077e90610e7d565b60405180910390fd5b6002600054036107cc576040517f08c379a00000000000000000000000000000000000000000000000000000000081526004016107c390610ee9565b60405180910390fd5b60026000819055506000600254600154866107e791906110ae565b6107f19190610ceb565b9050600254600360008282546108079190610f09565b925050819055508573ffffffffffffffffffffffffffffffffffffffff166323b872dd3330886040518463ffffffff167c0100000000000000000000000000000000000000000000000000000000028152600401610867939291906110df565b6020604051808303816000875af1158015610886573d6000803e3d6000fd5b505050506040513d601f19601f820116820180604052508101906108aa9190610fc0565b503373ffffffffffffffffffffffffffffffffffffffff166108fc829081150290604051600060405180830381858888f193505050501580156108f1573d6000803e3d6000fd5b505060016000819055505050505050565b7f000000000000000000000000000000000000000000000000000000000000000081565b7f000000000000000000000000000000000000000000000000000000000000000073ffffffffffffffffffffffffffffffffffffffff163373ffffffffffffffffffffffffffffffffffffffff16146109b4576040517f08c379a00000000000000000000000000000000000000000000000000000000081526004016109ab90610c5a565b60405180910390fd5b8060028190555050565b6000819050919050565b6109d1816109be565b82525050565b60006020820190506109ec60008301846109c8565b92915050565b600080fd5b610a00816109be565b8114610a0b57600080fd5b50565b600081359050610a1d816109f7565b92915050565b600060208284031215610a3957610a386109f2565b5b6000610a4784828501610a0e565b91505092915050565b600073ffffffffffffffffffffffffffffffffffffffff82169050919050565b6000610a7b82610a50565b9050919050565b610a8b81610a70565b8114610a9657600080fd5b50565b600081359050610aa881610a82565b92915050565b600060208284031215610ac457610ac36109f2565b5b6000610ad284828501610a99565b91505092915050565b60008060408385031215610af257610af16109f2565b5b6000610b0085828601610a99565b9250506020610b1185828601610a0e565b9150509250929050565b610b2481610a70565b82525050565b6000602082019050610b3f6000830184610b1b565b92915050565b600082825260208201905092915050565b7f56616c75654d6f72655468616e5a65726f3a2056616c75652073686f756c642060008201527f6e6f74206265207a65726f000000000000000000000000000000000000000000602082015250565b6000610bb2602b83610b45565b9150610bbd82610b56565b604082019050919050565b60006020820190508181036000830152610be181610ba5565b9050919050565b7f4f6e6c794f776e65723a204f6e6c79206f776e65722063616e2061636365737360008201527f20746869732066756e6374696f6e2e0000000000000000000000000000000000602082015250565b6000610c44602f83610b45565b9150610c4f82610be8565b604082019050919050565b60006020820190508181036000830152610c7381610c37565b9050919050565b600081519050610c89816109f7565b92915050565b600060208284031215610ca557610ca46109f2565b5b6000610cb384828501610c7a565b91505092915050565b7f4e487b7100000000000000000000000000000000000000000000000000000000600052601160045260246000fd5b6000610cf6826109be565b9150610d01836109be565b925082821015610d1457610d13610cbc565b5b828203905092915050565b6000610d2a826109be565b9150610d35836109be565b9250817fffffffffffffffffffffffffffffffffffffffffffffffffffffffffffffffff0483118215151615610d6e57610d6d610cbc565b5b828202905092915050565b7f444558546f6b656e417661696c61626c65496e436f6e74726163743a2044455860008201527f20746f6b656e206973206e6f7420617661696c61626c652e0000000000000000602082015250565b6000610dd5603883610b45565b9150610de082610d79565b604082019050919050565b60006020820190508181036000830152610e0481610dc8565b9050919050565b7f45786368616e676546656553656e743a2045786368616e67652066656520697360008201527f206e6f742073656e742e00000000000000000000000000000000000000000000602082015250565b6000610e67602a83610b45565b9150610e7282610e0b565b604082019050919050565b60006020820190508181036000830152610e9681610e5a565b9050919050565b7f5265656e7472616e637947756172643a207265656e7472616e742063616c6c00600082015250565b6000610ed3601f83610b45565b9150610ede82610e9d565b602082019050919050565b60006020820190508181036000830152610f0281610ec6565b9050919050565b6000610f14826109be565b9150610f1f836109be565b9250827fffffffffffffffffffffffffffffffffffffffffffffffffffffffffffffffff03821115610f5457610f53610cbc565b5b828201905092915050565b6000604082019050610f746000830185610b1b565b610f8160208301846109c8565b9392505050565b60008115159050919050565b610f9d81610f88565b8114610fa857600080fd5b50565b600081519050610fba81610f94565b92915050565b600060208284031215610fd657610fd56109f2565b5b6000610fe484828501610fab565b91505092915050565b7f444558546f6b656e417661696c61626c65496e53656e6465723a20444558207460008201527f6f6b656e206973206e6f7420617661696c61626c652e00000000000000000000602082015250565b6000611049603683610b45565b915061105482610fed565b604082019050919050565b600060208201905081810360008301526110788161103c565b9050919050565b7f4e487b7100000000000000000000000000000000000000000000000000000000600052601260045260246000fd5b60006110b9826109be565b91506110c4836109be565b9250826110d4576110d361107f565b5b828204905092915050565b60006060820190506110f46000830186610b1b565b6111016020830185610b1b565b61110e60408301846109c8565b94935050505056fea2646970667358221220d283cc3f3b88c16ba58baf03ab2cef800cb76e3f08ee58485f3500bddec1394c64736f6c634300080f0033",
  "immutableReferences": {
    "769": [
      {
        "length": 32,
        "start": 523
      },
      {
        "length": 32,
        "start": 1379
      },
      {
        "length": 32,
        "start": 1521
      },
      {
        "length": 32,
        "start": 2308
      },
      {
        "length": 32,
        "start": 2344
      }
    ]
  },
  "source": "// SPDX-License-Identifier: MIT\npragma solidity ^0.8.15;\n\nimport \"@openzeppelin/contracts/security/ReentrancyGuard.sol\";\nimport \"@openzeppelin/contracts/token/ERC20/IERC20.sol\";\n\ncontract DEX is ReentrancyGuard {\n    /**\n     * @dev Tracking DEXToken exchange rate per ethereum.\n     */\n    uint256 public dexTokenExchangeRate = 10000;\n\n    /**\n     * @dev Tracking exchange fee and total fee collected.\n     */\n    uint256 public exchangeFee = 0.0002 ether;\n    uint256 private collectedFees;\n\n\n    /**\n     * @dev keep track of the owner who deployed the contract.\n     */\n    address immutable public owner;\n\n    /**\n     * @dev Modifiers to check the owner is msg.sender.\n     */\n    modifier OnlyOwner() {\n        require(msg.sender == owner, \"OnlyOwner: Only owner can access this function.\");\n        _;\n    }\n\n    /**\n     * @dev Modifiers to check whether collected fees is more than zero.\n     */\n    modifier CollectedFeesMoreThanZero() {\n        require(collectedFees > 0, \"CollectedFeesMoreThanZero: There is not collected fees.\");\n        _;\n    }\n\n    /**\n     * @dev Modifiers to check the owner sent the exchange fee.\n     */\n    modifier ExchangeFeeSent() {\n        require(msg.value >= exchangeFee, \"ExchangeFeeSent: Exchange fee is not sent.\");\n        _;\n    }\n\n    /**\n     * @dev Modifiers to check the value is more than zero.\n     */\n    modifier ValueMoreThanZero(uint256 _value) {\n        require(_value > 0, \"ValueMoreThanZero: Value should not be zero\");\n        _;\n    }\n\n    /**\n     * @dev Modifier to check the DEXToken available or not.\n     * @param _dexTokenAddress: The contract address of DEXToken.\n     */\n    modifier DEXTokenAvailableInContract(address _dexTokenAddress){\n        uint256 contractBalance = IERC20(_dexTokenAddress).balanceOf(address(this));\n        uint256 tokenToSend = (msg.value - exchangeFee) * dexTokenExchangeRate;\n        require(contractBalance >= tokenToSend, \"DEXTokenAvailableInContract: DEX token is not available.\");\n        _;\n    }\n\n    /**\n     * @dev Modifier to check the DEXToken available or not.\n     * @param _dexTokenAddress: The contract address of DEXToken.\n     */\n    modifier DEXTokenAvailableInSender(address _dexTokenAddress, uint256 _tokenAmount){\n        uint256 ownerBalance = IERC20(_dexTokenAddress).balanceOf(address(msg.sender));\n        require(_tokenAmount >= ownerBalance, \"DEXTokenAvailableInSender: DEX token is not available.\");\n        _;\n    }\n\n    /**\n     * @dev Assigning the contract deployer to owner.\n     */\n    constructor(){\n        owner = msg.sender;\n    }\n\n    /**\n     * @dev Function to update DEXToken exchange rate.\n     * @param _newRate: The new exchange rate of DEXToken.\n     */\n    function updateDexTokenExchangeRate(uint256 _newRate) external\n        ValueMoreThanZero(_newRate) OnlyOwner {\n        dexTokenExchangeRate = _newRate;\n    }\n\n    /**\n     * @dev Function to update exchange fee.\n     * @param _newFee: The new exchange fee.\n     */\n    function updateExchangeFee(uint256 _newFee) external OnlyOwner {\n        exchangeFee = _newFee;\n    }\n\n    /**\n     * @dev Function to withdraw fees which only accessable from owner account.\n     */\n    function withdrawFees() external\n        ValueMoreThanZero(collectedFees) OnlyOwner {\n        payable(owner).transfer(collectedFees);\n        collectedFees = 0;\n    }\n\n    /**\n     * @dev function to swap ether with DEX Token.\n     * @param _dexTokenContractAddress: The address of the DEXToken contract.\n     */\n    function swapETHWithDEXToken(address _dexTokenContractAddress)\n     external DEXTokenAvailableInContract(_dexTokenContractAddress) ExchangeFeeSent nonReentrant payable {\n        uint256 tokenToSend = (msg.value - exchangeFee) * dexTokenExchangeRate;\n        collectedFees += exchangeFee;\n        IERC20(_dexTokenContractAddress).transfer(msg.sender, tokenToSend);\n    }\n\n    /**\n     * @dev function to swap DEX with ETH.\n     * @param _dexTokenContractAddress: The address of the DEXToken contract.\n     * @param _tokenAmount: The DEX token amount want to sell.\n     */\n    function swapDEXTokenWithETH(address _dexTokenContractAddress, uint256 _tokenAmount)\n     external DEXTokenAvailableInSender(_dexTokenContractAddress, _tokenAmount)\n     ExchangeFeeSent nonReentrant payable {\n        uint256 ethToSend = (_tokenAmount / dexTokenExchangeRate) - exchangeFee;\n        collectedFees += exchangeFee;\n        IERC20(_dexTokenContractAddress).transferFrom(msg.sender, address(this), _tokenAmount);\n        payable(msg.sender).transfer(ethToSend);\n    }\n}",
  "sourcePath": "/Volumes/Others/Web3Projects/decentralizeexchange/contracts/DEX.sol",
  "compiler": {
    "name": "solc",
    "version": "0.8.15+commit.e14f2714.Emscripten.clang"
  },
  "schemaVersion": "3.4.8",
  "updatedAt": "2022-08-23T15:36:28.200Z",
  "networkType": "ethereum",
  "devdoc": {
    "kind": "dev",
    "methods": {
      "constructor": {
        "details": "Assigning the contract deployer to owner."
      },
      "swapDEXTokenWithETH(address,uint256)": {
        "details": "function to swap DEX with ETH.",
        "params": {
          "_dexTokenContractAddress": ": The address of the DEXToken contract.",
          "_tokenAmount": ": The DEX token amount want to sell."
        }
      },
      "swapETHWithDEXToken(address)": {
        "details": "function to swap ether with DEX Token.",
        "params": {
          "_dexTokenContractAddress": ": The address of the DEXToken contract."
        }
      },
      "updateDexTokenExchangeRate(uint256)": {
        "details": "Function to update DEXToken exchange rate.",
        "params": {
          "_newRate": ": The new exchange rate of DEXToken."
        }
      },
      "updateExchangeFee(uint256)": {
        "details": "Function to update exchange fee.",
        "params": {
          "_newFee": ": The new exchange fee."
        }
      },
      "withdrawFees()": {
        "details": "Function to withdraw fees which only accessable from owner account."
      }
    },
    "stateVariables": {
      "dexTokenExchangeRate": {
        "details": "Tracking DEXToken exchange rate per ethereum."
      },
      "exchangeFee": {
        "details": "Tracking exchange fee and total fee collected."
      },
      "owner": {
        "details": "keep track of the owner who deployed the contract."
      }
    },
    "version": 1
  },
  "userdoc": {
    "kind": "user",
    "methods": {},
    "version": 1
  }
}