{
  "contractName": "DEX",
  "abi": [
    {
      "inputs": [],
      "stateMutability": "nonpayable",
      "type": "constructor"
    },
    {
      "anonymous": false,
      "inputs": [
        {
          "indexed": true,
          "internalType": "address",
          "name": "walletAddress",
          "type": "address"
        },
        {
          "indexed": true,
          "internalType": "uint256",
          "name": "ethValue",
          "type": "uint256"
        },
        {
          "indexed": true,
          "internalType": "uint256",
          "name": "dexValue",
          "type": "uint256"
        },
        {
          "indexed": false,
          "internalType": "bool",
          "name": "toDex",
          "type": "bool"
        }
      ],
      "name": "TokenSwapped",
      "type": "event"
    },
    {
      "inputs": [],
      "name": "dexTokenExchangeRate",
      "outputs": [
        {
          "internalType": "uint256",
          "name": "",
          "type": "uint256"
        }
      ],
      "stateMutability": "view",
      "type": "function",
      "constant": true
    },
    {
      "inputs": [],
      "name": "exchangeFee",
      "outputs": [
        {
          "internalType": "uint256",
          "name": "",
          "type": "uint256"
        }
      ],
      "stateMutability": "view",
      "type": "function",
      "constant": true
    },
    {
      "inputs": [],
      "name": "owner",
      "outputs": [
        {
          "internalType": "address",
          "name": "",
          "type": "address"
        }
      ],
      "stateMutability": "view",
      "type": "function",
      "constant": true
    },
    {
      "inputs": [
        {
          "internalType": "uint256",
          "name": "_newRate",
          "type": "uint256"
        }
      ],
      "name": "updateDexTokenExchangeRate",
      "outputs": [],
      "stateMutability": "nonpayable",
      "type": "function"
    },
    {
      "inputs": [
        {
          "internalType": "uint256",
          "name": "_newFee",
          "type": "uint256"
        }
      ],
      "name": "updateExchangeFee",
      "outputs": [],
      "stateMutability": "nonpayable",
      "type": "function"
    },
    {
      "inputs": [],
      "name": "withdrawFees",
      "outputs": [],
      "stateMutability": "nonpayable",
      "type": "function"
    },
    {
      "inputs": [
        {
          "internalType": "address",
          "name": "_dexTokenContractAddress",
          "type": "address"
        }
      ],
      "name": "swapETHWithDEXToken",
      "outputs": [],
      "stateMutability": "payable",
      "type": "function",
      "payable": true
    },
    {
      "inputs": [
        {
          "internalType": "address",
          "name": "_dexTokenContractAddress",
          "type": "address"
        },
        {
          "internalType": "uint256",
          "name": "_tokenAmount",
          "type": "uint256"
        }
      ],
      "name": "swapDEXTokenWithETH",
      "outputs": [],
      "stateMutability": "payable",
      "type": "function",
      "payable": true
    }
  ],
  "bytecode": "0x60a060405261271060015565b5e620f4800060025534801561002057600080fd5b5060016000819055503373ffffffffffffffffffffffffffffffffffffffff1660808173ffffffffffffffffffffffffffffffffffffffff16815250506080516112256100946000396000818161020b015281816105c10152818161064f015281816109b301526109d701526112256000f3fe608060405260043610610098576000357c010000000000000000000000000000000000000000000000000000000090048063476343ee1161006b578063476343ee146101385780638abbd3a91461014f5780638da5cb5b1461016b5780639b9cf7de1461019657610098565b80632ecd3be41461009d578063350d91fd146100c8578063367fd448146100f15780633e6f03f81461011c575b600080fd5b3480156100a957600080fd5b506100b26101bf565b6040516100bf9190610a86565b60405180910390f35b3480156100d457600080fd5b506100ef60048036038101906100ea9190610ad2565b6101c5565b005b3480156100fd57600080fd5b506101066102a2565b6040516101139190610a86565b60405180910390f35b61013660048036038101906101319190610b5d565b6102a8565b005b34801561014457600080fd5b5061014d610579565b005b61016960048036038101906101649190610b8a565b6106c1565b005b34801561017757600080fd5b506101806109b1565b60405161018d9190610bd9565b60405180910390f35b3480156101a257600080fd5b506101bd60048036038101906101b89190610ad2565b6109d5565b005b60025481565b8060008111610209576040517f08c379a000000000000000000000000000000000000000000000000000000000815260040161020090610c77565b60405180910390fd5b7f000000000000000000000000000000000000000000000000000000000000000073ffffffffffffffffffffffffffffffffffffffff163373ffffffffffffffffffffffffffffffffffffffff1614610297576040517f08c379a000000000000000000000000000000000000000000000000000000000815260040161028e90610d09565b60405180910390fd5b816001819055505050565b60015481565b8060008173ffffffffffffffffffffffffffffffffffffffff166370a08231306040518263ffffffff167c01000000000000000000000000000000000000000000000000000000000281526004016103009190610bd9565b602060405180830381865afa15801561031d573d6000803e3d6000fd5b505050506040513d601f19601f820116820180604052508101906103419190610d3e565b90506000600154600254346103569190610d9a565b6103609190610dce565b9050808210156103a5576040517f08c379a000000000000000000000000000000000000000000000000000000000815260040161039c90610e9a565b60405180910390fd5b6002543410156103ea576040517f08c379a00000000000000000000000000000000000000000000000000000000081526004016103e190610f2c565b60405180910390fd5b60026000540361042f576040517f08c379a000000000000000000000000000000000000000000000000000000000815260040161042690610f98565b60405180910390fd5b600260008190555060006001546002543461044a9190610d9a565b6104549190610dce565b90506002546003600082825461046a9190610fb8565b925050819055508473ffffffffffffffffffffffffffffffffffffffff1663a9059cbb33836040518363ffffffff167c01000000000000000000000000000000000000000000000000000000000281526004016104c892919061100e565b6020604051808303816000875af11580156104e7573d6000803e3d6000fd5b505050506040513d601f19601f8201168201806040525081019061050b919061106f565b50806002543461051b9190610d9a565b3373ffffffffffffffffffffffffffffffffffffffff167f998db19d1e1862382f8a2644e3c399121b4ec6dcae1a42dd4034c30fca3fe32b600160405161056291906110ab565b60405180910390a450600160008190555050505050565b600354600081116105bf576040517f08c379a00000000000000000000000000000000000000000000000000000000081526004016105b690610c77565b60405180910390fd5b7f000000000000000000000000000000000000000000000000000000000000000073ffffffffffffffffffffffffffffffffffffffff163373ffffffffffffffffffffffffffffffffffffffff161461064d576040517f08c379a000000000000000000000000000000000000000000000000000000000815260040161064490610d09565b60405180910390fd5b7f000000000000000000000000000000000000000000000000000000000000000073ffffffffffffffffffffffffffffffffffffffff166108fc6003549081150290604051600060405180830381858888f193505050501580156106b5573d6000803e3d6000fd5b50600060038190555050565b818160008273ffffffffffffffffffffffffffffffffffffffff166370a08231336040518263ffffffff167c010000000000000000000000000000000000000000000000000000000002815260040161071a9190610bd9565b602060405180830381865afa158015610737573d6000803e3d6000fd5b505050506040513d601f19601f8201168201806040525081019061075b9190610d3e565b9050808211156107a0576040517f08c379a000000000000000000000000000000000000000000000000000000000815260040161079790611138565b60405180910390fd5b6002543410156107e5576040517f08c379a00000000000000000000000000000000000000000000000000000000081526004016107dc90610f2c565b60405180910390fd5b60026000540361082a576040517f08c379a000000000000000000000000000000000000000000000000000000000815260040161082190610f98565b60405180910390fd5b60026000819055506000600254600154866108459190611187565b61084f9190610d9a565b9050600254600360008282546108659190610fb8565b925050819055508573ffffffffffffffffffffffffffffffffffffffff166323b872dd3330886040518463ffffffff167c01000000000000000000000000000000000000000000000000000000000281526004016108c5939291906111b8565b6020604051808303816000875af11580156108e4573d6000803e3d6000fd5b505050506040513d601f19601f82011682018060405250810190610908919061106f565b503373ffffffffffffffffffffffffffffffffffffffff166108fc829081150290604051600060405180830381858888f1935050505015801561094f573d6000803e3d6000fd5b5084813373ffffffffffffffffffffffffffffffffffffffff167f998db19d1e1862382f8a2644e3c399121b4ec6dcae1a42dd4034c30fca3fe32b600060405161099991906110ab565b60405180910390a45060016000819055505050505050565b7f000000000000000000000000000000000000000000000000000000000000000081565b7f000000000000000000000000000000000000000000000000000000000000000073ffffffffffffffffffffffffffffffffffffffff163373ffffffffffffffffffffffffffffffffffffffff1614610a63576040517f08c379a0000000000000000000000000000000000000000000000000000000008152600401610a5a90610d09565b60405180910390fd5b8060028190555050565b6000819050919050565b610a8081610a6d565b82525050565b6000602082019050610a9b6000830184610a77565b92915050565b600080fd5b610aaf81610a6d565b8114610aba57600080fd5b50565b600081359050610acc81610aa6565b92915050565b600060208284031215610ae857610ae7610aa1565b5b6000610af684828501610abd565b91505092915050565b600073ffffffffffffffffffffffffffffffffffffffff82169050919050565b6000610b2a82610aff565b9050919050565b610b3a81610b1f565b8114610b4557600080fd5b50565b600081359050610b5781610b31565b92915050565b600060208284031215610b7357610b72610aa1565b5b6000610b8184828501610b48565b91505092915050565b60008060408385031215610ba157610ba0610aa1565b5b6000610baf85828601610b48565b9250506020610bc085828601610abd565b9150509250929050565b610bd381610b1f565b82525050565b6000602082019050610bee6000830184610bca565b92915050565b600082825260208201905092915050565b7f56616c75654d6f72655468616e5a65726f3a2056616c75652073686f756c642060008201527f6e6f74206265207a65726f000000000000000000000000000000000000000000602082015250565b6000610c61602b83610bf4565b9150610c6c82610c05565b604082019050919050565b60006020820190508181036000830152610c9081610c54565b9050919050565b7f4f6e6c794f776e65723a204f6e6c79206f776e65722063616e2061636365737360008201527f20746869732066756e6374696f6e2e0000000000000000000000000000000000602082015250565b6000610cf3602f83610bf4565b9150610cfe82610c97565b604082019050919050565b60006020820190508181036000830152610d2281610ce6565b9050919050565b600081519050610d3881610aa6565b92915050565b600060208284031215610d5457610d53610aa1565b5b6000610d6284828501610d29565b91505092915050565b7f4e487b7100000000000000000000000000000000000000000000000000000000600052601160045260246000fd5b6000610da582610a6d565b9150610db083610a6d565b925082821015610dc357610dc2610d6b565b5b828203905092915050565b6000610dd982610a6d565b9150610de483610a6d565b9250817fffffffffffffffffffffffffffffffffffffffffffffffffffffffffffffffff0483118215151615610e1d57610e1c610d6b565b5b828202905092915050565b7f444558546f6b656e417661696c61626c65496e436f6e74726163743a2044455860008201527f20746f6b656e206973206e6f7420617661696c61626c652e0000000000000000602082015250565b6000610e84603883610bf4565b9150610e8f82610e28565b604082019050919050565b60006020820190508181036000830152610eb381610e77565b9050919050565b7f45786368616e676546656553656e743a2045786368616e67652066656520697360008201527f206e6f742073656e742e00000000000000000000000000000000000000000000602082015250565b6000610f16602a83610bf4565b9150610f2182610eba565b604082019050919050565b60006020820190508181036000830152610f4581610f09565b9050919050565b7f5265656e7472616e637947756172643a207265656e7472616e742063616c6c00600082015250565b6000610f82601f83610bf4565b9150610f8d82610f4c565b602082019050919050565b60006020820190508181036000830152610fb181610f75565b9050919050565b6000610fc382610a6d565b9150610fce83610a6d565b9250827fffffffffffffffffffffffffffffffffffffffffffffffffffffffffffffffff0382111561100357611002610d6b565b5b828201905092915050565b60006040820190506110236000830185610bca565b6110306020830184610a77565b9392505050565b60008115159050919050565b61104c81611037565b811461105757600080fd5b50565b60008151905061106981611043565b92915050565b60006020828403121561108557611084610aa1565b5b60006110938482850161105a565b91505092915050565b6110a581611037565b82525050565b60006020820190506110c0600083018461109c565b92915050565b7f444558546f6b656e417661696c61626c65496e53656e6465723a20444558207460008201527f6f6b656e206973206e6f7420617661696c61626c652e00000000000000000000602082015250565b6000611122603683610bf4565b915061112d826110c6565b604082019050919050565b6000602082019050818103600083015261115181611115565b9050919050565b7f4e487b7100000000000000000000000000000000000000000000000000000000600052601260045260246000fd5b600061119282610a6d565b915061119d83610a6d565b9250826111ad576111ac611158565b5b828204905092915050565b60006060820190506111cd6000830186610bca565b6111da6020830185610bca565b6111e76040830184610a77565b94935050505056fea26469706673582212201689713e3addaf36077b96291dcc916e3676036f42e1ae61689a36e7a20f287d64736f6c634300080f0033",
  "immutableReferences": {
    "136": [
      {
        "length": 32,
        "start": 523
      },
      {
        "length": 32,
        "start": 1473
      },
      {
        "length": 32,
        "start": 1615
      },
      {
        "length": 32,
        "start": 2483
      },
      {
        "length": 32,
        "start": 2519
      }
    ]
  },
  "source": "// SPDX-License-Identifier: MIT\npragma solidity ^0.8.15;\n\nimport \"@openzeppelin/contracts/security/ReentrancyGuard.sol\";\nimport \"@openzeppelin/contracts/token/ERC20/IERC20.sol\";\n\ncontract DEX is ReentrancyGuard {\n    /**\n     * @dev Tracking DEXToken exchange rate per ethereum.\n     */\n    uint256 public dexTokenExchangeRate = 10000;\n\n    /**\n     * @dev Tracking exchange fee and total fee collected.\n     */\n    uint256 public exchangeFee = 0.0002 ether;\n    uint256 private collectedFees;\n\n\n    /**\n     * @dev keep track of the owner who deployed the contract.\n     */\n    address immutable public owner;\n\n    /**\n     * @dev Modifiers to check the owner is msg.sender.\n     */\n    modifier OnlyOwner() {\n        require(msg.sender == owner, \"OnlyOwner: Only owner can access this function.\");\n        _;\n    }\n\n    /**\n     * @dev Modifiers to check whether collected fees is more than zero.\n     */\n    modifier CollectedFeesMoreThanZero() {\n        require(collectedFees > 0, \"CollectedFeesMoreThanZero: There is not collected fees.\");\n        _;\n    }\n\n    /**\n     * @dev Modifiers to check the owner sent the exchange fee.\n     */\n    modifier ExchangeFeeSent() {\n        require(msg.value >= exchangeFee, \"ExchangeFeeSent: Exchange fee is not sent.\");\n        _;\n    }\n\n    /**\n     * @dev Modifiers to check the value is more than zero.\n     */\n    modifier ValueMoreThanZero(uint256 _value) {\n        require(_value > 0, \"ValueMoreThanZero: Value should not be zero\");\n        _;\n    }\n\n    /**\n     * @dev Modifier to check the DEXToken available or not.\n     * @param _dexTokenAddress: The contract address of DEXToken.\n     */\n    modifier DEXTokenAvailableInContract(address _dexTokenAddress){\n        uint256 contractBalance = IERC20(_dexTokenAddress).balanceOf(address(this));\n        uint256 tokenToSend = (msg.value - exchangeFee) * dexTokenExchangeRate;\n        require(contractBalance >= tokenToSend, \"DEXTokenAvailableInContract: DEX token is not available.\");\n        _;\n    }\n\n    /**\n     * @dev Modifier to check the DEXToken available or not.\n     * @param _dexTokenAddress: The contract address of DEXToken.\n     */\n    modifier DEXTokenAvailableInSender(address _dexTokenAddress, uint256 _tokenAmount){\n        uint256 ownerBalance = IERC20(_dexTokenAddress).balanceOf(address(msg.sender));\n        require(_tokenAmount <= ownerBalance, \"DEXTokenAvailableInSender: DEX token is not available.\");\n        _;\n    }\n\n    /**\n     * @dev Event to keep track of swapped values.\n     * @param walletAddress: The address who swapped.\n     * @param ethValue: The ethereum value.\n     * @param dexValue: The DEX token value.\n     * @param toDex: Boolean value to check whether address swapped eth with dex\n     */\n    event TokenSwapped(\n        address indexed walletAddress,\n        uint256 indexed ethValue,\n        uint256 indexed dexValue,\n        bool toDex\n    );\n\n    /**\n     * @dev Assigning the contract deployer to owner.\n     */\n    constructor(){\n        owner = msg.sender;\n    }\n\n    /**\n     * @dev Function to update DEXToken exchange rate.\n     * @param _newRate: The new exchange rate of DEXToken.\n     */\n    function updateDexTokenExchangeRate(uint256 _newRate) external\n        ValueMoreThanZero(_newRate) OnlyOwner {\n        dexTokenExchangeRate = _newRate;\n    }\n\n    /**\n     * @dev Function to update exchange fee.\n     * @param _newFee: The new exchange fee.\n     */\n    function updateExchangeFee(uint256 _newFee) external OnlyOwner {\n        exchangeFee = _newFee;\n    }\n\n    /**\n     * @dev Function to withdraw fees which only accessable from owner account.\n     */\n    function withdrawFees() external\n        ValueMoreThanZero(collectedFees) OnlyOwner {\n        payable(owner).transfer(collectedFees);\n        collectedFees = 0;\n    }\n\n    /**\n     * @dev function to swap ether with DEX Token.\n     * @param _dexTokenContractAddress: The address of the DEXToken contract.\n     */\n    function swapETHWithDEXToken(address _dexTokenContractAddress)\n     external DEXTokenAvailableInContract(_dexTokenContractAddress) ExchangeFeeSent nonReentrant payable {\n        uint256 tokenToSend = (msg.value - exchangeFee) * dexTokenExchangeRate;\n        collectedFees += exchangeFee;\n        IERC20(_dexTokenContractAddress).transfer(msg.sender, tokenToSend);\n        emit TokenSwapped(msg.sender, msg.value - exchangeFee, tokenToSend, true);\n    }\n\n    /**\n     * @dev function to swap DEX with ETH.\n     * @param _dexTokenContractAddress: The address of the DEXToken contract.\n     * @param _tokenAmount: The DEX token amount want to sell.\n     */\n    function swapDEXTokenWithETH(address _dexTokenContractAddress, uint256 _tokenAmount)\n     external DEXTokenAvailableInSender(_dexTokenContractAddress, _tokenAmount)\n     ExchangeFeeSent nonReentrant payable {\n        uint256 ethToSend = (_tokenAmount / dexTokenExchangeRate) - exchangeFee;\n        collectedFees += exchangeFee;\n        IERC20(_dexTokenContractAddress).transferFrom(msg.sender, address(this), _tokenAmount);\n        payable(msg.sender).transfer(ethToSend);\n        emit TokenSwapped(msg.sender, ethToSend, _tokenAmount, false);\n    }\n}",
  "sourcePath": "/Volumes/Others/Web3Projects/decentralizeexchange/contracts/DEX.sol",
  "compiler": {
    "name": "solc",
    "version": "0.8.15+commit.e14f2714.Emscripten.clang"
  },
  "schemaVersion": "3.4.8",
  "updatedAt": "2022-08-25T17:49:54.591Z",
  "networkType": "ethereum",
  "devdoc": {
    "events": {
      "TokenSwapped(address,uint256,uint256,bool)": {
        "details": "Event to keep track of swapped values.",
        "params": {
          "dexValue": ": The DEX token value.",
          "ethValue": ": The ethereum value.",
          "toDex": ": Boolean value to check whether address swapped eth with dex",
          "walletAddress": ": The address who swapped."
        }
      }
    },
    "kind": "dev",
    "methods": {
      "constructor": {
        "details": "Assigning the contract deployer to owner."
      },
      "swapDEXTokenWithETH(address,uint256)": {
        "details": "function to swap DEX with ETH.",
        "params": {
          "_dexTokenContractAddress": ": The address of the DEXToken contract.",
          "_tokenAmount": ": The DEX token amount want to sell."
        }
      },
      "swapETHWithDEXToken(address)": {
        "details": "function to swap ether with DEX Token.",
        "params": {
          "_dexTokenContractAddress": ": The address of the DEXToken contract."
        }
      },
      "updateDexTokenExchangeRate(uint256)": {
        "details": "Function to update DEXToken exchange rate.",
        "params": {
          "_newRate": ": The new exchange rate of DEXToken."
        }
      },
      "updateExchangeFee(uint256)": {
        "details": "Function to update exchange fee.",
        "params": {
          "_newFee": ": The new exchange fee."
        }
      },
      "withdrawFees()": {
        "details": "Function to withdraw fees which only accessable from owner account."
      }
    },
    "stateVariables": {
      "dexTokenExchangeRate": {
        "details": "Tracking DEXToken exchange rate per ethereum."
      },
      "exchangeFee": {
        "details": "Tracking exchange fee and total fee collected."
      },
      "owner": {
        "details": "keep track of the owner who deployed the contract."
      }
    },
    "version": 1
  },
  "userdoc": {
    "kind": "user",
    "methods": {},
    "version": 1
  }
}