{
  "contractName": "DEXToken",
  "abi": [
    {
      "inputs": [
        {
          "internalType": "string",
          "name": "_name",
          "type": "string"
        },
        {
          "internalType": "string",
          "name": "_symbol",
          "type": "string"
        },
        {
          "internalType": "address",
          "name": "_dexAddress",
          "type": "address"
        }
      ],
      "stateMutability": "nonpayable",
      "type": "constructor"
    },
    {
      "anonymous": false,
      "inputs": [
        {
          "indexed": true,
          "internalType": "address",
          "name": "owner",
          "type": "address"
        },
        {
          "indexed": true,
          "internalType": "address",
          "name": "spender",
          "type": "address"
        },
        {
          "indexed": false,
          "internalType": "uint256",
          "name": "value",
          "type": "uint256"
        }
      ],
      "name": "Approval",
      "type": "event"
    },
    {
      "anonymous": false,
      "inputs": [
        {
          "indexed": true,
          "internalType": "address",
          "name": "from",
          "type": "address"
        },
        {
          "indexed": true,
          "internalType": "address",
          "name": "to",
          "type": "address"
        },
        {
          "indexed": false,
          "internalType": "uint256",
          "name": "value",
          "type": "uint256"
        }
      ],
      "name": "Transfer",
      "type": "event"
    },
    {
      "inputs": [
        {
          "internalType": "address",
          "name": "owner",
          "type": "address"
        },
        {
          "internalType": "address",
          "name": "spender",
          "type": "address"
        }
      ],
      "name": "allowance",
      "outputs": [
        {
          "internalType": "uint256",
          "name": "",
          "type": "uint256"
        }
      ],
      "stateMutability": "view",
      "type": "function",
      "constant": true
    },
    {
      "inputs": [
        {
          "internalType": "address",
          "name": "spender",
          "type": "address"
        },
        {
          "internalType": "uint256",
          "name": "amount",
          "type": "uint256"
        }
      ],
      "name": "approve",
      "outputs": [
        {
          "internalType": "bool",
          "name": "",
          "type": "bool"
        }
      ],
      "stateMutability": "nonpayable",
      "type": "function"
    },
    {
      "inputs": [
        {
          "internalType": "address",
          "name": "account",
          "type": "address"
        }
      ],
      "name": "balanceOf",
      "outputs": [
        {
          "internalType": "uint256",
          "name": "",
          "type": "uint256"
        }
      ],
      "stateMutability": "view",
      "type": "function",
      "constant": true
    },
    {
      "inputs": [],
      "name": "decimals",
      "outputs": [
        {
          "internalType": "uint8",
          "name": "",
          "type": "uint8"
        }
      ],
      "stateMutability": "view",
      "type": "function",
      "constant": true
    },
    {
      "inputs": [
        {
          "internalType": "address",
          "name": "spender",
          "type": "address"
        },
        {
          "internalType": "uint256",
          "name": "subtractedValue",
          "type": "uint256"
        }
      ],
      "name": "decreaseAllowance",
      "outputs": [
        {
          "internalType": "bool",
          "name": "",
          "type": "bool"
        }
      ],
      "stateMutability": "nonpayable",
      "type": "function"
    },
    {
      "inputs": [
        {
          "internalType": "address",
          "name": "spender",
          "type": "address"
        },
        {
          "internalType": "uint256",
          "name": "addedValue",
          "type": "uint256"
        }
      ],
      "name": "increaseAllowance",
      "outputs": [
        {
          "internalType": "bool",
          "name": "",
          "type": "bool"
        }
      ],
      "stateMutability": "nonpayable",
      "type": "function"
    },
    {
      "inputs": [],
      "name": "name",
      "outputs": [
        {
          "internalType": "string",
          "name": "",
          "type": "string"
        }
      ],
      "stateMutability": "view",
      "type": "function",
      "constant": true
    },
    {
      "inputs": [],
      "name": "symbol",
      "outputs": [
        {
          "internalType": "string",
          "name": "",
          "type": "string"
        }
      ],
      "stateMutability": "view",
      "type": "function",
      "constant": true
    },
    {
      "inputs": [],
      "name": "totalSupply",
      "outputs": [
        {
          "internalType": "uint256",
          "name": "",
          "type": "uint256"
        }
      ],
      "stateMutability": "view",
      "type": "function",
      "constant": true
    },
    {
      "inputs": [
        {
          "internalType": "address",
          "name": "to",
          "type": "address"
        },
        {
          "internalType": "uint256",
          "name": "amount",
          "type": "uint256"
        }
      ],
      "name": "transfer",
      "outputs": [
        {
          "internalType": "bool",
          "name": "",
          "type": "bool"
        }
      ],
      "stateMutability": "nonpayable",
      "type": "function"
    },
    {
      "inputs": [
        {
          "internalType": "address",
          "name": "from",
          "type": "address"
        },
        {
          "internalType": "address",
          "name": "to",
          "type": "address"
        },
        {
          "internalType": "uint256",
          "name": "amount",
          "type": "uint256"
        }
      ],
      "name": "transferFrom",
      "outputs": [
        {
          "internalType": "bool",
          "name": "",
          "type": "bool"
        }
      ],
      "stateMutability": "nonpayable",
      "type": "function"
    },
    {
      "inputs": [
        {
          "internalType": "uint256",
          "name": "_initialSupply",
          "type": "uint256"
        }
      ],
      "name": "mintDEXToken",
      "outputs": [],
      "stateMutability": "nonpayable",
      "type": "function"
    }
  ],
  "bytecode": "0x60c06040523480156200001157600080fd5b5060405162001d8d38038062001d8d8339818101604052810190620000379190620002d2565b828281600390816200004a9190620005bd565b5080600490816200005c9190620005bd565b5050508073ffffffffffffffffffffffffffffffffffffffff1660808173ffffffffffffffffffffffffffffffffffffffff16815250503373ffffffffffffffffffffffffffffffffffffffff1660a08173ffffffffffffffffffffffffffffffffffffffff1681525050505050620006a4565b6000604051905090565b600080fd5b600080fd5b600080fd5b600080fd5b6000601f19601f8301169050919050565b7f4e487b7100000000000000000000000000000000000000000000000000000000600052604160045260246000fd5b6200013982620000ee565b810181811067ffffffffffffffff821117156200015b576200015a620000ff565b5b80604052505050565b600062000170620000d0565b90506200017e82826200012e565b919050565b600067ffffffffffffffff821115620001a157620001a0620000ff565b5b620001ac82620000ee565b9050602081019050919050565b60005b83811015620001d9578082015181840152602081019050620001bc565b83811115620001e9576000848401525b50505050565b600062000206620002008462000183565b62000164565b905082815260208101848484011115620002255762000224620000e9565b5b62000232848285620001b9565b509392505050565b600082601f830112620002525762000251620000e4565b5b815162000264848260208601620001ef565b91505092915050565b600073ffffffffffffffffffffffffffffffffffffffff82169050919050565b60006200029a826200026d565b9050919050565b620002ac816200028d565b8114620002b857600080fd5b50565b600081519050620002cc81620002a1565b92915050565b600080600060608486031215620002ee57620002ed620000da565b5b600084015167ffffffffffffffff8111156200030f576200030e620000df565b5b6200031d868287016200023a565b935050602084015167ffffffffffffffff811115620003415762000340620000df565b5b6200034f868287016200023a565b92505060406200036286828701620002bb565b9150509250925092565b600081519050919050565b7f4e487b7100000000000000000000000000000000000000000000000000000000600052602260045260246000fd5b60006002820490506001821680620003bf57607f821691505b602082108103620003d557620003d462000377565b5b50919050565b60008190508160005260206000209050919050565b60006020601f8301049050919050565b60008160020a8302905092915050565b600060088302620004427fffffffffffffffffffffffffffffffffffffffffffffffffffffffffffffffff8262000400565b6200044e868362000400565b95508019841693508086168417925050509392505050565b6000819050919050565b6000819050919050565b60006200049b620004956200048f8462000466565b62000470565b62000466565b9050919050565b6000819050919050565b620004b7836200047a565b620004cf620004c682620004a2565b84845462000410565b825550505050565b600090565b620004e6620004d7565b620004f3818484620004ac565b505050565b5b818110156200051b576200050f600082620004dc565b600181019050620004f9565b5050565b601f8211156200056a576200053481620003db565b6200053f84620003f0565b810160208510156200054f578190505b620005676200055e85620003f0565b830182620004f8565b50505b505050565b60008160020a8304905092915050565b600062000592600019846008026200056f565b1980831691505092915050565b6000620005ad83836200057f565b9150826002028217905092915050565b620005c8826200036c565b67ffffffffffffffff811115620005e457620005e3620000ff565b5b620005f08254620003a6565b620005fd8282856200051f565b600060209050601f83116001811462000635576000841562000620578287015190505b6200062c85826200059f565b8655506200069c565b601f1984166200064586620003db565b60005b828110156200066f5784890151825560018201915060208501945060208101905062000648565b868310156200068f57848901516200068b601f8916826200057f565b8355505b6001600288020188555050505b505050505050565b60805160a0516116c3620006ca60003960006105e5015260006106ba01526116c36000f3fe608060405234801561001057600080fd5b50600436106100d1576000357c01000000000000000000000000000000000000000000000000000000009004806370a082311161008e57806370a08231146101c057806395d89b41146101f0578063a457c2d71461020e578063a9059cbb1461023e578063dd62ed3e1461026e578063ea1b40121461029e576100d1565b806306fdde03146100d6578063095ea7b3146100f457806318160ddd1461012457806323b872dd14610142578063313ce567146101725780633950935114610190575b600080fd5b6100de6102ba565b6040516100eb9190610dc1565b60405180910390f35b61010e60048036038101906101099190610e7c565b61034c565b60405161011b9190610ed7565b60405180910390f35b61012c61036f565b6040516101399190610f01565b60405180910390f35b61015c60048036038101906101579190610f1c565b610379565b6040516101699190610ed7565b60405180910390f35b61017a6103a8565b6040516101879190610f8b565b60405180910390f35b6101aa60048036038101906101a59190610e7c565b6103b1565b6040516101b79190610ed7565b60405180910390f35b6101da60048036038101906101d59190610fa6565b6103e8565b6040516101e79190610f01565b60405180910390f35b6101f8610430565b6040516102059190610dc1565b60405180910390f35b61022860048036038101906102239190610e7c565b6104c2565b6040516102359190610ed7565b60405180910390f35b61025860048036038101906102539190610e7c565b610539565b6040516102659190610ed7565b60405180910390f35b61028860048036038101906102839190610fd3565b61055c565b6040516102959190610f01565b60405180910390f35b6102b860048036038101906102b39190611013565b6105e3565b005b6060600380546102c99061106f565b80601f01602080910402602001604051908101604052809291908181526020018280546102f59061106f565b80156103425780601f1061031757610100808354040283529160200191610342565b820191906000526020600020905b81548152906001019060200180831161032557829003601f168201915b5050505050905090565b6000806103576106e3565b90506103648185856106eb565b600191505092915050565b6000600254905090565b6000806103846106e3565b90506103918582856108b4565b61039c858585610940565b60019150509392505050565b60006012905090565b6000806103bc6106e3565b90506103dd8185856103ce858961055c565b6103d891906110cf565b6106eb565b600191505092915050565b60008060008373ffffffffffffffffffffffffffffffffffffffff1673ffffffffffffffffffffffffffffffffffffffff168152602001908152602001600020549050919050565b60606004805461043f9061106f565b80601f016020809104026020016040519081016040528092919081815260200182805461046b9061106f565b80156104b85780601f1061048d576101008083540402835291602001916104b8565b820191906000526020600020905b81548152906001019060200180831161049b57829003601f168201915b5050505050905090565b6000806104cd6106e3565b905060006104db828661055c565b905083811015610520576040517f08c379a000000000000000000000000000000000000000000000000000000000815260040161051790611197565b60405180910390fd5b61052d82868684036106eb565b60019250505092915050565b6000806105446106e3565b9050610551818585610940565b600191505092915050565b6000600160008473ffffffffffffffffffffffffffffffffffffffff1673ffffffffffffffffffffffffffffffffffffffff16815260200190815260200160002060008373ffffffffffffffffffffffffffffffffffffffff1673ffffffffffffffffffffffffffffffffffffffff16815260200190815260200160002054905092915050565b7f000000000000000000000000000000000000000000000000000000000000000073ffffffffffffffffffffffffffffffffffffffff163373ffffffffffffffffffffffffffffffffffffffff1614610671576040517f08c379a000000000000000000000000000000000000000000000000000000000815260040161066890611229565b60405180910390fd5b80600081116106b5576040517f08c379a00000000000000000000000000000000000000000000000000000000081526004016106ac906112bb565b60405180910390fd5b6106df7f000000000000000000000000000000000000000000000000000000000000000083610bbf565b5050565b600033905090565b600073ffffffffffffffffffffffffffffffffffffffff168373ffffffffffffffffffffffffffffffffffffffff160361075a576040517f08c379a00000000000000000000000000000000000000000000000000000000081526004016107519061134d565b60405180910390fd5b600073ffffffffffffffffffffffffffffffffffffffff168273ffffffffffffffffffffffffffffffffffffffff16036107c9576040517f08c379a00000000000000000000000000000000000000000000000000000000081526004016107c0906113df565b60405180910390fd5b80600160008573ffffffffffffffffffffffffffffffffffffffff1673ffffffffffffffffffffffffffffffffffffffff16815260200190815260200160002060008473ffffffffffffffffffffffffffffffffffffffff1673ffffffffffffffffffffffffffffffffffffffff168152602001908152602001600020819055508173ffffffffffffffffffffffffffffffffffffffff168373ffffffffffffffffffffffffffffffffffffffff167f8c5be1e5ebec7d5bd14f71427d1e84f3dd0314c0f7b2291e5b200ac8c7c3b925836040516108a79190610f01565b60405180910390a3505050565b60006108c0848461055c565b90507fffffffffffffffffffffffffffffffffffffffffffffffffffffffffffffffff811461093a578181101561092c576040517f08c379a00000000000000000000000000000000000000000000000000000000081526004016109239061144b565b60405180910390fd5b61093984848484036106eb565b5b50505050565b600073ffffffffffffffffffffffffffffffffffffffff168373ffffffffffffffffffffffffffffffffffffffff16036109af576040517f08c379a00000000000000000000000000000000000000000000000000000000081526004016109a6906114dd565b60405180910390fd5b600073ffffffffffffffffffffffffffffffffffffffff168273ffffffffffffffffffffffffffffffffffffffff1603610a1e576040517f08c379a0000000000000000000000000000000000000000000000000000000008152600401610a159061156f565b60405180910390fd5b610a29838383610d1e565b60008060008573ffffffffffffffffffffffffffffffffffffffff1673ffffffffffffffffffffffffffffffffffffffff16815260200190815260200160002054905081811015610aaf576040517f08c379a0000000000000000000000000000000000000000000000000000000008152600401610aa690611601565b60405180910390fd5b8181036000808673ffffffffffffffffffffffffffffffffffffffff1673ffffffffffffffffffffffffffffffffffffffff16815260200190815260200160002081905550816000808573ffffffffffffffffffffffffffffffffffffffff1673ffffffffffffffffffffffffffffffffffffffff1681526020019081526020016000206000828254610b4291906110cf565b925050819055508273ffffffffffffffffffffffffffffffffffffffff168473ffffffffffffffffffffffffffffffffffffffff167fddf252ad1be2c89b69c2b068fc378daa952ba7f163c4a11628f55a4df523b3ef84604051610ba69190610f01565b60405180910390a3610bb9848484610d23565b50505050565b600073ffffffffffffffffffffffffffffffffffffffff168273ffffffffffffffffffffffffffffffffffffffff1603610c2e576040517f08c379a0000000000000000000000000000000000000000000000000000000008152600401610c259061166d565b60405180910390fd5b610c3a60008383610d1e565b8060026000828254610c4c91906110cf565b92505081905550806000808473ffffffffffffffffffffffffffffffffffffffff1673ffffffffffffffffffffffffffffffffffffffff1681526020019081526020016000206000828254610ca191906110cf565b925050819055508173ffffffffffffffffffffffffffffffffffffffff16600073ffffffffffffffffffffffffffffffffffffffff167fddf252ad1be2c89b69c2b068fc378daa952ba7f163c4a11628f55a4df523b3ef83604051610d069190610f01565b60405180910390a3610d1a60008383610d23565b5050565b505050565b505050565b600081519050919050565b600082825260208201905092915050565b60005b83811015610d62578082015181840152602081019050610d47565b83811115610d71576000848401525b50505050565b6000601f19601f8301169050919050565b6000610d9382610d28565b610d9d8185610d33565b9350610dad818560208601610d44565b610db681610d77565b840191505092915050565b60006020820190508181036000830152610ddb8184610d88565b905092915050565b600080fd5b600073ffffffffffffffffffffffffffffffffffffffff82169050919050565b6000610e1382610de8565b9050919050565b610e2381610e08565b8114610e2e57600080fd5b50565b600081359050610e4081610e1a565b92915050565b6000819050919050565b610e5981610e46565b8114610e6457600080fd5b50565b600081359050610e7681610e50565b92915050565b60008060408385031215610e9357610e92610de3565b5b6000610ea185828601610e31565b9250506020610eb285828601610e67565b9150509250929050565b60008115159050919050565b610ed181610ebc565b82525050565b6000602082019050610eec6000830184610ec8565b92915050565b610efb81610e46565b82525050565b6000602082019050610f166000830184610ef2565b92915050565b600080600060608486031215610f3557610f34610de3565b5b6000610f4386828701610e31565b9350506020610f5486828701610e31565b9250506040610f6586828701610e67565b9150509250925092565b600060ff82169050919050565b610f8581610f6f565b82525050565b6000602082019050610fa06000830184610f7c565b92915050565b600060208284031215610fbc57610fbb610de3565b5b6000610fca84828501610e31565b91505092915050565b60008060408385031215610fea57610fe9610de3565b5b6000610ff885828601610e31565b925050602061100985828601610e31565b9150509250929050565b60006020828403121561102957611028610de3565b5b600061103784828501610e67565b91505092915050565b7f4e487b7100000000000000000000000000000000000000000000000000000000600052602260045260246000fd5b6000600282049050600182168061108757607f821691505b60208210810361109a57611099611040565b5b50919050565b7f4e487b7100000000000000000000000000000000000000000000000000000000600052601160045260246000fd5b60006110da82610e46565b91506110e583610e46565b9250827fffffffffffffffffffffffffffffffffffffffffffffffffffffffffffffffff0382111561111a576111196110a0565b5b828201905092915050565b7f45524332303a2064656372656173656420616c6c6f77616e63652062656c6f7760008201527f207a65726f000000000000000000000000000000000000000000000000000000602082015250565b6000611181602583610d33565b915061118c82611125565b604082019050919050565b600060208201905081810360008301526111b081611174565b9050919050565b7f4f6e6c794f776e65723a204f6e6c79206f776e65722063616e2061636365737360008201527f20746869732066756e6374696f6e2e0000000000000000000000000000000000602082015250565b6000611213602f83610d33565b915061121e826111b7565b604082019050919050565b6000602082019050818103600083015261124281611206565b9050919050565b7f537570706c794d6f72655468616e5a65726f3a20537570706c79206973207a6560008201527f726f2e0000000000000000000000000000000000000000000000000000000000602082015250565b60006112a5602383610d33565b91506112b082611249565b604082019050919050565b600060208201905081810360008301526112d481611298565b9050919050565b7f45524332303a20617070726f76652066726f6d20746865207a65726f2061646460008201527f7265737300000000000000000000000000000000000000000000000000000000602082015250565b6000611337602483610d33565b9150611342826112db565b604082019050919050565b600060208201905081810360008301526113668161132a565b9050919050565b7f45524332303a20617070726f766520746f20746865207a65726f20616464726560008201527f7373000000000000000000000000000000000000000000000000000000000000602082015250565b60006113c9602283610d33565b91506113d48261136d565b604082019050919050565b600060208201905081810360008301526113f8816113bc565b9050919050565b7f45524332303a20696e73756666696369656e7420616c6c6f77616e6365000000600082015250565b6000611435601d83610d33565b9150611440826113ff565b602082019050919050565b6000602082019050818103600083015261146481611428565b9050919050565b7f45524332303a207472616e736665722066726f6d20746865207a65726f20616460008201527f6472657373000000000000000000000000000000000000000000000000000000602082015250565b60006114c7602583610d33565b91506114d28261146b565b604082019050919050565b600060208201905081810360008301526114f6816114ba565b9050919050565b7f45524332303a207472616e7366657220746f20746865207a65726f206164647260008201527f6573730000000000000000000000000000000000000000000000000000000000602082015250565b6000611559602383610d33565b9150611564826114fd565b604082019050919050565b600060208201905081810360008301526115888161154c565b9050919050565b7f45524332303a207472616e7366657220616d6f756e742065786365656473206260008201527f616c616e63650000000000000000000000000000000000000000000000000000602082015250565b60006115eb602683610d33565b91506115f68261158f565b604082019050919050565b6000602082019050818103600083015261161a816115de565b9050919050565b7f45524332303a206d696e7420746f20746865207a65726f206164647265737300600082015250565b6000611657601f83610d33565b915061166282611621565b602082019050919050565b600060208201905081810360008301526116868161164a565b905091905056fea2646970667358221220e7265c7fdda5d70ea7b7431e899ad5dfee283cb9faff6eb56ae16b366781705764736f6c634300080f0033",
  "immutableReferences": {
    "1045": [
      {
        "length": 32,
        "start": 1722
      }
    ],
    "1048": [
      {
        "length": 32,
        "start": 1509
      }
    ]
  },
  "source": "// SPDX-License-Identifier: MIT\npragma solidity ^0.8.15;\n\nimport \"@openzeppelin/contracts/token/ERC20/ERC20.sol\";\n\ncontract DEXToken is ERC20 {\n    /**\n     * @dev Keep tracking of DEX contract address.\n     */\n    address immutable dexAddress;\n\n    /**\n     * @dev keep track of the owner who deployed the contract\n     */\n    address immutable owner;\n\n    /**\n     * @dev Modifiers to check the owner is msg.sender\n     */\n    modifier OnlyOwner() {\n        require(msg.sender == owner, \"OnlyOwner: Only owner can access this function.\");\n        _;\n    }\n\n    /**\n     * @dev Modifiers to check the supply is not zero\n     */\n    modifier SupplyMoreThanZero(uint _supply) {\n        require(_supply > 0, \"SupplyMoreThanZero: Supply is zero.\");\n        _;\n    }\n\n    /**\n     * @dev Initilizing the ERC20 contract and also initilize the dexAddress.\n     * @param _name: The name of the token.\n     * @param _symbol: The symbol of the token.\n     * @param _dexAddress: The DEX Contract address.\n     */\n    constructor(\n        string memory _name,\n        string memory _symbol,\n        address _dexAddress\n    ) ERC20(_name, _symbol){\n        dexAddress = _dexAddress;\n        owner = msg.sender;\n    }\n\n    /**\n     * @dev Minting the token to DEX contract with initial supply.\n     * @param _initialSupply: The initial supply of that token.\n     */\n    function mintDEXToken(uint _initialSupply) external\n        OnlyOwner SupplyMoreThanZero(_initialSupply) {\n        _mint(dexAddress, _initialSupply);\n    }\n}",
  "sourcePath": "/Volumes/Others/Web3Projects/decentralizeexchange/contracts/DEXToken.sol",
  "compiler": {
    "name": "solc",
    "version": "0.8.15+commit.e14f2714.Emscripten.clang"
  },
  "schemaVersion": "3.4.8",
  "updatedAt": "2022-08-25T14:25:03.637Z",
  "networkType": "ethereum",
  "devdoc": {
    "kind": "dev",
    "methods": {
      "allowance(address,address)": {
        "details": "See {IERC20-allowance}."
      },
      "approve(address,uint256)": {
        "details": "See {IERC20-approve}. NOTE: If `amount` is the maximum `uint256`, the allowance is not updated on `transferFrom`. This is semantically equivalent to an infinite approval. Requirements: - `spender` cannot be the zero address."
      },
      "balanceOf(address)": {
        "details": "See {IERC20-balanceOf}."
      },
      "constructor": {
        "details": "Initilizing the ERC20 contract and also initilize the dexAddress.",
        "params": {
          "_dexAddress": ": The DEX Contract address.",
          "_name": ": The name of the token.",
          "_symbol": ": The symbol of the token."
        }
      },
      "decimals()": {
        "details": "Returns the number of decimals used to get its user representation. For example, if `decimals` equals `2`, a balance of `505` tokens should be displayed to a user as `5.05` (`505 / 10 ** 2`). Tokens usually opt for a value of 18, imitating the relationship between Ether and Wei. This is the value {ERC20} uses, unless this function is overridden; NOTE: This information is only used for _display_ purposes: it in no way affects any of the arithmetic of the contract, including {IERC20-balanceOf} and {IERC20-transfer}."
      },
      "decreaseAllowance(address,uint256)": {
        "details": "Atomically decreases the allowance granted to `spender` by the caller. This is an alternative to {approve} that can be used as a mitigation for problems described in {IERC20-approve}. Emits an {Approval} event indicating the updated allowance. Requirements: - `spender` cannot be the zero address. - `spender` must have allowance for the caller of at least `subtractedValue`."
      },
      "increaseAllowance(address,uint256)": {
        "details": "Atomically increases the allowance granted to `spender` by the caller. This is an alternative to {approve} that can be used as a mitigation for problems described in {IERC20-approve}. Emits an {Approval} event indicating the updated allowance. Requirements: - `spender` cannot be the zero address."
      },
      "mintDEXToken(uint256)": {
        "details": "Minting the token to DEX contract with initial supply.",
        "params": {
          "_initialSupply": ": The initial supply of that token."
        }
      },
      "name()": {
        "details": "Returns the name of the token."
      },
      "symbol()": {
        "details": "Returns the symbol of the token, usually a shorter version of the name."
      },
      "totalSupply()": {
        "details": "See {IERC20-totalSupply}."
      },
      "transfer(address,uint256)": {
        "details": "See {IERC20-transfer}. Requirements: - `to` cannot be the zero address. - the caller must have a balance of at least `amount`."
      },
      "transferFrom(address,address,uint256)": {
        "details": "See {IERC20-transferFrom}. Emits an {Approval} event indicating the updated allowance. This is not required by the EIP. See the note at the beginning of {ERC20}. NOTE: Does not update the allowance if the current allowance is the maximum `uint256`. Requirements: - `from` and `to` cannot be the zero address. - `from` must have a balance of at least `amount`. - the caller must have allowance for ``from``'s tokens of at least `amount`."
      }
    },
    "stateVariables": {
      "dexAddress": {
        "details": "Keep tracking of DEX contract address."
      },
      "owner": {
        "details": "keep track of the owner who deployed the contract"
      }
    },
    "version": 1
  },
  "userdoc": {
    "kind": "user",
    "methods": {},
    "version": 1
  }
}